:1000000027C664C940C63FC63EC63DC63CC63BC6C1
:100010003AC639C638C637C636C635C634C644436E
:1000200042414141414141414141414141414141BF
:1000300041414141414141414141414141414141B0
:1000400041414141414141414141414141414141A0
:100050004141414141414141414141414141414190
:100060004141414141414141414141414141414180
:100BD00041414141414105010906A101050719E0D3
:100BE00029E7150025017501950881029501750811
:100BF0002565190029658100C004030904120370EA
:100C000000680069006B007300680075006E000CDE
:100C10000375004400750063006B001201100100B1
:100C2000000008424231E1000101020001090222F4
:100C300000010100801909040000010300000009FF
:100C400021010100012223000705810308000A0099
:100C500011241FBECFE5D2E0DEBFCDBF10E0A0E67D
:100C6000B0E0E2E8F7E102C005900D92A836B107C6
:100C7000D9F710E0A8E6B0E001C01D92AD3AB10787
:100C8000E1F72ED07CC5BCC9FC018FE690E09093C3
:100C9000920080939100808180768032F9F4818186
:100CA000813059F480916A008F5F80936A001092BE
:100CB0006F001092700082E00895823041F481E765
:100CC00090E0909392008093910081E008958A30A3
:100CD00029F483818093710080E0089580E0089575
:100CE0002F923F924F925F926F927F928F929F923C
:100CF000AF92BF92CF92DF92EF92FF920F931F932A
:100D0000CF93DF9380E090E097D48F3F09F081BFCD
:100D1000BB9A20E043EB51EFCA010197F1F72F5F37
:100D20002431D1F7BB982EE088E190E00FB6F8941B
:100D3000A89581BD0FBE21BD8BE080BF8BE391E004
:100D4000A0E0B0E08093720090937300A0937400D1
:100D5000B09375003FD1789464ED462E69E4562E29
:100D6000612C712C52E0252E312C44EC842E4EE067
:100D7000942EA12CB12CC1E0D0E004E031E0C32ED0
:100D8000D12CE12CF12CA89552D18091620084FFE6
:100D9000A9C08091720090917300A0917400B091ED
:100DA00075000197A105B10509F09CC0409168004C
:100DB00050916900CA01825E9F4FFC013491CA01C3
:100DC000815E9F4FFC012491405E5F4FFA011491B8
:100DD000313409F052C0213409F04FC0113409F008
:100DE0004CC080916A008F5F80936A0010926F0000
:100DF000109270008FE690E062E0F6D010926900E9
:100E00001092680010926A0080916B0090916C00C3
:100E1000009769F48092720090927300A09274001F
:100E2000B0927500D0936C00C0936B005BC00197CB
:100E300069F4409272005092730060927400709254
:100E4000750030926C0020926B004CC0E6D323E01A
:100E5000880F991F2A95E1F7AA2797FDA095BA2F29
:100E600080549842A24FBF4F8093720090937300BA
:100E7000A0937400B093750035C080916A00982FDC
:100E80009F5F80FF0BC090936A0010926F001092DA
:100E900070008FE690E062E0A7D024C090936A00D3
:100EA00030936F00209370008FE690E062E09CD05A
:100EB000112379F0812F90E00196AA2797FDA09544
:100EC000BA2F8093720090937300A0937400B09334
:100ED0007500809168009091690003969093690075
:100EE0008093680008B602FE4ECF08BF80916D0067
:100EF00090916E00019690936E0080936D00A0E03B
:100F0000B0E02091720030917300409174005091D4
:100F1000750082179307A407B50708F434CFC09271
:100F20007200D0927300E0927400F09275001092FB
:100F30006E0010926D0027CFDF92EF92FF920F9319
:100F40001F93CF93DF9300E070E8D72EEE24FF24A9
:100F50001D2D100F11BFA7D1EC0189E0C433D807B4
:100F60000CF0102FD6940894E11CF11C88E0E816D0
:100F7000F10411F0012FECCF115011BF1F5FE12ED2
:100F8000FF240894E11CF11C13C08DD19C01245353
:100F9000394037FF03C0309521953F4F2C173D074F
:100FA00014F09E0101C011B781B78F5F81BFE901C5
:100FB00081B790E0E816F90644F711BF61B780E009
:100FC00090E042D3DF91CF911F910F91FF90EF906E
:100FD000DF90089585B7836085BF8BB780648BBF32
:100FE00083EC8093830008951F93DC01162F80917A
:100FF000620084FF0AC08091830098E8892780936B
:101000008300912FE4E8F0E007C08AE58093620056
:10101000F8CF8D91819391509923D9F784E890E08E
:10102000612F3DD11C5F109362001F9108950F93B3
:101030001F93CF93DF939091930019160CF0B1C0DA
:101040002091900080918F008D3209F0A0C08AE538
:10105000809361009B3009F09AC0CCE0D0E0C21BC5
:10106000D109C956DF4F8881807609F082C010927D
:1010700081008981882359F41092820081E890E0F0
:10108000909392008093910090E822E079C085309F
:1010900021F48A81809394006AC0863009F04CC0A4
:1010A0008B81813019F48BE19CE01DC0823049F4C2
:1010B0008DE29CE0909392008093910090EC22E26C
:1010C0005FC0833019F58A81882349F489EF9BE05A
:1010D000909392008093910090EC24E051C0813075
:1010E00049F48DEF9BE0909392008093910090ECF7
:1010F00022E146C0823009F041C08FE09CE090932D
:1011000092008093910090EC2CE03AC0813249F437
:101110008FE39CE0909392008093910090EC29E003
:101120002FC0823259F586ED9BE090939200809318
:10113000910090EC23E224C0883019F486E990E015
:101140000AC0893021F48A818093960010C08A30C9
:1011500049F481E890E0909392008093910090E8A8
:1011600021E00EC08B3019F483EC8093830090E86B
:1011700006C0CE0189DD282F90E802C090EC20E067
:101180008F81882339F48E81821728F003C090E87C
:1011900080E001C0822F90937700809360001092CE
:1011A00093008091610084FF49C0809160008F3F6F
:1011B00009F444C0182F893008F018E0811B80938F
:1011C00060008091770080FD02C00BE401C003EC59
:1011D0008F5F80937700209191003091920086FD7F
:1011E00005C0D901912FE9E7F0E011C0A9E7B0E00F
:1011F00080E090E006C0F901E80FF91FE491ED935B
:1012000001961817C1F705C08D91819391509923CC
:10121000D9F7F901E10FF11DF0939200E0939100ED
:1012200089E790E0612F3BD0183019F08FEF809361
:101230006000009378001C5F109361009AE086B311
:10124000887131F49150D9F71092940010928E0069
:1012500010E0992309F411E080917600811729F0BC
:10126000112309F469DE10937600DF91CF911F916D
:101270000F910895A82FB92F80E090E041E050EA47
:1012800060956F5F58F42D9138EF82279795879579
:1012900010F0842795273F5FC8F3F3CF0895EADF66
:1012A0008D939D930895A6E088279927AA9569F0C4
:1012B0000197E1F3B399FCCFB39BFECF81E099276F
:1012C000A6B3019611F0A871D9F70895CF93CFB7BF
:1012D000CF93B39BFECFB39B0BC0B39B09C0B39B13
:1012E00007C0B39B05C0B39B03C0B39B01C0D5C06F
:1012F0000F92DF93C0919000DD27C956DF4F012E7A
:10130000B39B03C0DF910F90E6CF2F930F931F93F2
:101310004F932FEF4F6F06B303FB20F95F933F937B
:1013200050E03BE065C016B30126502953FDC89537
:1013300056B3012703FB25F92F7306B3B1F05027ED
:10134000102713FB26F906B22230F0F000C016B3C6
:10135000012703FB27F90126502906B22430E8F5BE
:101360004F77206816B30000F6CF50274F7D2062DC
:1013700006B2102F000000C006B300265029102727
:1013800013FB26F906B2E2CF4F7B06B3206400C000
:10139000DACF01265029187106B269F14E7F21601B
:1013A000012F16B328C0002650294D7F06B22260B7
:1013B000102F29C0012650294B7F06B22460012F2F
:1013C0002DC016B301265029477F2860000006B2C1
:1013D0002EC04F7E06B3206130C0422706B349932A
:1013E00000265029102706B24FEF13FB20F9297F62
:1013F00016B379F2187159F10126502906B2012766
:1014000003FB21F9237F06B371F2002650293150E6
:10141000D0F006B2102713FB22F9277E16B351F243
:1014200001265029012703FB06B223F92F7C49F23C
:10143000000006B3102713FB24F90026502906B23A
:101440002F7939F270CF10E41ABF002719C03B5032
:101450003195C31BD04010E41ABF0881033C09F149
:101460000B34F9F020918E001981110F1213EDCF7A
:101470004A81441F093651F10D3211F0013E29F71E
:10148000009395003F915F914F911F910F912F9184
:10149000DF910F90CAB7C6FD1CCFCF91CFBFCF91C0
:1014A000189500919500002369F310919300112382
:1014B00079F534307AF13093930000938F001091D6
:1014C00090003BE0311B3093900024C000919300CA
:1014D0000130F4F40AE54F7049F43091610034FDB5
:1014E0001AC000936100C8E7D0E019C030916200D3
:1014F00034FD11C000936200C3E8D0E010C005279E
:1015000010E000C021C0052710E0C89508BB14C03A
:101510003AE501C032ED032EC0E0D0E032E017B36F
:101520001861C39A08B317BB58E120E84FEF20FFBA
:10153000052708BB279517951C3F28F70000455243
:10154000B0F720FF0527279508BB17951C3FB8F675
:1015500029913A9561F7077E10919400110F08BB0D
:10156000C250D04011F010938E0010E41ABF0860F2
:1015700017B3177E402F477E54E05A95F1F708BB0A
:1015800017BB48BB7FCFA0E0B0E0E8ECFAE0A6C014
:10159000EC01A880B980CA80DB80A114B104C10429
:1015A000D10441F484E2A82E89EDB82E8BE5C82E33
:1015B00087E0D82EC601B5012DE133EF41E050E0C0
:1015C0006AD027EA31E440E050E04CD07B018C0146
:1015D000C601B5012DE133EF41E050E05CD0CA0116
:1015E000B9012CEE34EF4FEF5FEF3CD06E0D7F1D55
:1015F000801F911F97FF04C0615070408040904849
:10160000688379838A839B839B013F77C901CDB728
:10161000DEB7EAE07FC0B7DF089583E690E0B3DF8E
:101620000895A0E0B0E08093630090936400A093DD
:101630006500B09366000895E199FECF9FBB8EBB15
:10164000E09A99278DB30895262FE199FECF1CBA11
:101650009FBB8EBB2DBB0FB6F894E29AE19A0FBEEA
:1016600001960895FF27EE27BB27AA2760FF04C035
:10167000A20FB31FE41FF51F220F331F441F551F76
:10168000969587957795679589F70097760771F70F
:10169000CF01BD01089597FB092E05260ED057FDF9
:1016A00004D04BD00AD0001C38F4509540953095AA
:1016B00021953F4F4F4F5F4F0895F6F790958095D6
:1016C000709561957F4F8F4F9F4F08952F923F9256
:1016D0004F925F926F927F928F929F92AF92BF9242
:1016E000CF92DF92EF92FF920F931F93CF93DF93EE
:1016F000CDB7DEB7CA1BDB0B0FB6F894DEBF0FBE4B
:10170000CDBF09942A88398848885F846E847D8497
:101710008C849B84AA84B984C884DF80EE80FD8099
:101720000C811B81AA81B981CE0FD11D0FB6F8940F
:10173000DEBF0FBECDBFED010895A1E21A2EAA1B98
:10174000BB1BFD010DC0AA1FBB1FEE1FFF1FA21771
:10175000B307E407F50720F0A21BB30BE40BF50B6E
:10176000661F771F881F991F1A9469F760957095F7
:10177000809590959B01AC01BD01CF010895F8942F
:02178000FFCF99
:08178200FF5A5A0100000000AB
:00000001FF
